{
  "_format": "hh-sol-artifact-1",
  "contractName": "NFT",
  "sourceName": "contracts/NFT.sol",
  "abi": [
    {
      "inputs": [
        {
          "internalType": "address payable",
          "name": "minter",
          "type": "address"
        }
      ],
      "stateMutability": "nonpayable",
      "type": "constructor"
    },
    {
      "anonymous": false,
      "inputs": [
        {
          "indexed": true,
          "internalType": "address",
          "name": "owner",
          "type": "address"
        },
        {
          "indexed": true,
          "internalType": "address",
          "name": "approved",
          "type": "address"
        },
        {
          "indexed": true,
          "internalType": "uint256",
          "name": "tokenId",
          "type": "uint256"
        }
      ],
      "name": "Approval",
      "type": "event"
    },
    {
      "anonymous": false,
      "inputs": [
        {
          "indexed": true,
          "internalType": "address",
          "name": "owner",
          "type": "address"
        },
        {
          "indexed": true,
          "internalType": "address",
          "name": "operator",
          "type": "address"
        },
        {
          "indexed": false,
          "internalType": "bool",
          "name": "approved",
          "type": "bool"
        }
      ],
      "name": "ApprovalForAll",
      "type": "event"
    },
    {
      "anonymous": false,
      "inputs": [
        {
          "indexed": true,
          "internalType": "bytes32",
          "name": "role",
          "type": "bytes32"
        },
        {
          "indexed": true,
          "internalType": "bytes32",
          "name": "previousAdminRole",
          "type": "bytes32"
        },
        {
          "indexed": true,
          "internalType": "bytes32",
          "name": "newAdminRole",
          "type": "bytes32"
        }
      ],
      "name": "RoleAdminChanged",
      "type": "event"
    },
    {
      "anonymous": false,
      "inputs": [
        {
          "indexed": true,
          "internalType": "bytes32",
          "name": "role",
          "type": "bytes32"
        },
        {
          "indexed": true,
          "internalType": "address",
          "name": "account",
          "type": "address"
        },
        {
          "indexed": true,
          "internalType": "address",
          "name": "sender",
          "type": "address"
        }
      ],
      "name": "RoleGranted",
      "type": "event"
    },
    {
      "anonymous": false,
      "inputs": [
        {
          "indexed": true,
          "internalType": "bytes32",
          "name": "role",
          "type": "bytes32"
        },
        {
          "indexed": true,
          "internalType": "address",
          "name": "account",
          "type": "address"
        },
        {
          "indexed": true,
          "internalType": "address",
          "name": "sender",
          "type": "address"
        }
      ],
      "name": "RoleRevoked",
      "type": "event"
    },
    {
      "anonymous": false,
      "inputs": [
        {
          "indexed": true,
          "internalType": "address",
          "name": "from",
          "type": "address"
        },
        {
          "indexed": true,
          "internalType": "address",
          "name": "to",
          "type": "address"
        },
        {
          "indexed": true,
          "internalType": "uint256",
          "name": "tokenId",
          "type": "uint256"
        }
      ],
      "name": "Transfer",
      "type": "event"
    },
    {
      "inputs": [],
      "name": "DEFAULT_ADMIN_ROLE",
      "outputs": [
        {
          "internalType": "bytes32",
          "name": "",
          "type": "bytes32"
        }
      ],
      "stateMutability": "view",
      "type": "function"
    },
    {
      "inputs": [],
      "name": "MINTER_ROLE",
      "outputs": [
        {
          "internalType": "bytes32",
          "name": "",
          "type": "bytes32"
        }
      ],
      "stateMutability": "view",
      "type": "function"
    },
    {
      "inputs": [
        {
          "internalType": "address",
          "name": "to",
          "type": "address"
        },
        {
          "internalType": "uint256",
          "name": "tokenId",
          "type": "uint256"
        }
      ],
      "name": "approve",
      "outputs": [],
      "stateMutability": "nonpayable",
      "type": "function"
    },
    {
      "inputs": [],
      "name": "availableToWithdraw",
      "outputs": [
        {
          "internalType": "uint256",
          "name": "",
          "type": "uint256"
        }
      ],
      "stateMutability": "view",
      "type": "function"
    },
    {
      "inputs": [
        {
          "internalType": "address",
          "name": "owner",
          "type": "address"
        }
      ],
      "name": "balanceOf",
      "outputs": [
        {
          "internalType": "uint256",
          "name": "",
          "type": "uint256"
        }
      ],
      "stateMutability": "view",
      "type": "function"
    },
    {
      "inputs": [
        {
          "internalType": "uint256",
          "name": "tokenId",
          "type": "uint256"
        }
      ],
      "name": "getApproved",
      "outputs": [
        {
          "internalType": "address",
          "name": "",
          "type": "address"
        }
      ],
      "stateMutability": "view",
      "type": "function"
    },
    {
      "inputs": [],
      "name": "getChainID",
      "outputs": [
        {
          "internalType": "uint256",
          "name": "",
          "type": "uint256"
        }
      ],
      "stateMutability": "view",
      "type": "function"
    },
    {
      "inputs": [
        {
          "internalType": "bytes32",
          "name": "role",
          "type": "bytes32"
        }
      ],
      "name": "getRoleAdmin",
      "outputs": [
        {
          "internalType": "bytes32",
          "name": "",
          "type": "bytes32"
        }
      ],
      "stateMutability": "view",
      "type": "function"
    },
    {
      "inputs": [
        {
          "internalType": "bytes32",
          "name": "role",
          "type": "bytes32"
        },
        {
          "internalType": "address",
          "name": "account",
          "type": "address"
        }
      ],
      "name": "grantRole",
      "outputs": [],
      "stateMutability": "nonpayable",
      "type": "function"
    },
    {
      "inputs": [
        {
          "internalType": "bytes32",
          "name": "role",
          "type": "bytes32"
        },
        {
          "internalType": "address",
          "name": "account",
          "type": "address"
        }
      ],
      "name": "hasRole",
      "outputs": [
        {
          "internalType": "bool",
          "name": "",
          "type": "bool"
        }
      ],
      "stateMutability": "view",
      "type": "function"
    },
    {
      "inputs": [
        {
          "internalType": "address",
          "name": "owner",
          "type": "address"
        },
        {
          "internalType": "address",
          "name": "operator",
          "type": "address"
        }
      ],
      "name": "isApprovedForAll",
      "outputs": [
        {
          "internalType": "bool",
          "name": "",
          "type": "bool"
        }
      ],
      "stateMutability": "view",
      "type": "function"
    },
    {
      "inputs": [],
      "name": "name",
      "outputs": [
        {
          "internalType": "string",
          "name": "",
          "type": "string"
        }
      ],
      "stateMutability": "view",
      "type": "function"
    },
    {
      "inputs": [
        {
          "internalType": "uint256",
          "name": "tokenId",
          "type": "uint256"
        }
      ],
      "name": "ownerOf",
      "outputs": [
        {
          "internalType": "address",
          "name": "",
          "type": "address"
        }
      ],
      "stateMutability": "view",
      "type": "function"
    },
    {
      "inputs": [
        {
          "internalType": "address",
          "name": "redeemer",
          "type": "address"
        },
        {
          "components": [
            {
              "internalType": "uint256",
              "name": "tokenId",
              "type": "uint256"
            },
            {
              "internalType": "uint256",
              "name": "minPrice",
              "type": "uint256"
            },
            {
              "internalType": "string",
              "name": "uri",
              "type": "string"
            },
            {
              "internalType": "bytes",
              "name": "signature",
              "type": "bytes"
            }
          ],
          "internalType": "struct NFT.NFTVoucher",
          "name": "voucher",
          "type": "tuple"
        }
      ],
      "name": "redeem",
      "outputs": [
        {
          "internalType": "uint256",
          "name": "",
          "type": "uint256"
        }
      ],
      "stateMutability": "payable",
      "type": "function"
    },
    {
      "inputs": [
        {
          "internalType": "bytes32",
          "name": "role",
          "type": "bytes32"
        },
        {
          "internalType": "address",
          "name": "account",
          "type": "address"
        }
      ],
      "name": "renounceRole",
      "outputs": [],
      "stateMutability": "nonpayable",
      "type": "function"
    },
    {
      "inputs": [
        {
          "internalType": "bytes32",
          "name": "role",
          "type": "bytes32"
        },
        {
          "internalType": "address",
          "name": "account",
          "type": "address"
        }
      ],
      "name": "revokeRole",
      "outputs": [],
      "stateMutability": "nonpayable",
      "type": "function"
    },
    {
      "inputs": [
        {
          "internalType": "address",
          "name": "from",
          "type": "address"
        },
        {
          "internalType": "address",
          "name": "to",
          "type": "address"
        },
        {
          "internalType": "uint256",
          "name": "tokenId",
          "type": "uint256"
        }
      ],
      "name": "safeTransferFrom",
      "outputs": [],
      "stateMutability": "nonpayable",
      "type": "function"
    },
    {
      "inputs": [
        {
          "internalType": "address",
          "name": "from",
          "type": "address"
        },
        {
          "internalType": "address",
          "name": "to",
          "type": "address"
        },
        {
          "internalType": "uint256",
          "name": "tokenId",
          "type": "uint256"
        },
        {
          "internalType": "bytes",
          "name": "_data",
          "type": "bytes"
        }
      ],
      "name": "safeTransferFrom",
      "outputs": [],
      "stateMutability": "nonpayable",
      "type": "function"
    },
    {
      "inputs": [
        {
          "internalType": "address",
          "name": "operator",
          "type": "address"
        },
        {
          "internalType": "bool",
          "name": "approved",
          "type": "bool"
        }
      ],
      "name": "setApprovalForAll",
      "outputs": [],
      "stateMutability": "nonpayable",
      "type": "function"
    },
    {
      "inputs": [
        {
          "internalType": "bytes4",
          "name": "interfaceId",
          "type": "bytes4"
        }
      ],
      "name": "supportsInterface",
      "outputs": [
        {
          "internalType": "bool",
          "name": "",
          "type": "bool"
        }
      ],
      "stateMutability": "view",
      "type": "function"
    },
    {
      "inputs": [],
      "name": "symbol",
      "outputs": [
        {
          "internalType": "string",
          "name": "",
          "type": "string"
        }
      ],
      "stateMutability": "view",
      "type": "function"
    },
    {
      "inputs": [
        {
          "internalType": "uint256",
          "name": "tokenId",
          "type": "uint256"
        }
      ],
      "name": "tokenURI",
      "outputs": [
        {
          "internalType": "string",
          "name": "",
          "type": "string"
        }
      ],
      "stateMutability": "view",
      "type": "function"
    },
    {
      "inputs": [
        {
          "internalType": "address",
          "name": "from",
          "type": "address"
        },
        {
          "internalType": "address",
          "name": "to",
          "type": "address"
        },
        {
          "internalType": "uint256",
          "name": "tokenId",
          "type": "uint256"
        }
      ],
      "name": "transferFrom",
      "outputs": [],
      "stateMutability": "nonpayable",
      "type": "function"
    },
    {
      "inputs": [],
      "name": "withdraw",
      "outputs": [],
      "stateMutability": "nonpayable",
      "type": "function"
    }
  ],
  "bytecode": "0x6101406040523480156200001257600080fd5b5060405162004fd338038062004fd38339818101604052810190620000389190620004b0565b6040518060400160405280600781526020017f47454d2d4e4654000000000000000000000000000000000000000000000000008152506040518060400160405280600181526020017f31000000000000000000000000000000000000000000000000000000000000008152506040518060400160405280600681526020017f47454d4e465400000000000000000000000000000000000000000000000000008152506040518060400160405280600381526020017f47454d0000000000000000000000000000000000000000000000000000000000815250816000908051906020019062000128929190620003e9565b50806001908051906020019062000141929190620003e9565b50505060008280519060200120905060008280519060200120905060007f8b73c3c69bb8fe3d512ecc4cf759cc79239f7b179b0ffacaa9a75d522b39400f90508260e081815250508161010081815250504660a08181525050620001ad8184846200023260201b60201c565b608081815250503073ffffffffffffffffffffffffffffffffffffffff1660c08173ffffffffffffffffffffffffffffffffffffffff1660601b8152505080610120818152505050505050506200022b7f9f2df0fed2c77648de5860a4cc508cd0818c85b8b8a1ab4ceeef8d981c8956a6826200026e60201b60201c565b5062000647565b600083838346306040516020016200024f9594939291906200050f565b6040516020818303038152906040528051906020012090509392505050565b6200028082826200028460201b60201c565b5050565b6200029682826200037660201b60201c565b620003725760016007600084815260200190815260200160002060000160008373ffffffffffffffffffffffffffffffffffffffff1673ffffffffffffffffffffffffffffffffffffffff16815260200190815260200160002060006101000a81548160ff02191690831515021790555062000317620003e160201b60201c565b73ffffffffffffffffffffffffffffffffffffffff168173ffffffffffffffffffffffffffffffffffffffff16837f2f8788117e7eff1d82e926ec794901d17c78024a50270940304540a733656f0d60405160405180910390a45b5050565b60006007600084815260200190815260200160002060000160008373ffffffffffffffffffffffffffffffffffffffff1673ffffffffffffffffffffffffffffffffffffffff16815260200190815260200160002060009054906101000a900460ff16905092915050565b600033905090565b828054620003f790620005c8565b90600052602060002090601f0160209004810192826200041b576000855562000467565b82601f106200043657805160ff191683800117855562000467565b8280016001018555821562000467579182015b828111156200046657825182559160200191906001019062000449565b5b5090506200047691906200047a565b5090565b5b80821115620004955760008160009055506001016200047b565b5090565b600081519050620004aa816200062d565b92915050565b600060208284031215620004c357600080fd5b6000620004d38482850162000499565b91505092915050565b620004e7816200056c565b82525050565b620004f88162000594565b82525050565b6200050981620005be565b82525050565b600060a082019050620005266000830188620004ed565b620005356020830187620004ed565b620005446040830186620004ed565b620005536060830185620004fe565b620005626080830184620004dc565b9695505050505050565b600062000579826200059e565b9050919050565b60006200058d826200059e565b9050919050565b6000819050919050565b600073ffffffffffffffffffffffffffffffffffffffff82169050919050565b6000819050919050565b60006002820490506001821680620005e157607f821691505b60208210811415620005f857620005f7620005fe565b5b50919050565b7f4e487b7100000000000000000000000000000000000000000000000000000000600052602260045260246000fd5b620006388162000580565b81146200064457600080fd5b50565b60805160a05160c05160601c60e05161010051610120516149396200069a6000396000612b2001526000612b6201526000612b4101526000612a7601526000612acc01526000612af501526149396000f3fe60806040526004361061014b5760003560e01c80636352211e116100b6578063b88d4fde1161006f578063b88d4fde146104a7578063c87b56dd146104d0578063d53913931461050d578063d547741f14610538578063e322ad2b14610561578063e985e9c51461058c5761014b565b80636352211e1461037157806370a08231146103ae57806391d14854146103eb57806395d89b4114610428578063a217fddf14610453578063a22cb4651461047e5761014b565b8063248a9ca311610108578063248a9ca3146102775780632f2ff15d146102b457806336568abe146102dd5780633ccfd60b1461030657806342842e0e1461031d578063564b81ef146103465761014b565b806301ffc9a71461015057806306fdde031461018d578063081812fc146101b857806308708a78146101f5578063095ea7b31461022557806323b872dd1461024e575b600080fd5b34801561015c57600080fd5b5061017760048036038101906101729190613158565b6105c9565b60405161018491906137e6565b60405180910390f35b34801561019957600080fd5b506101a26105eb565b6040516101af91906138f9565b60405180910390f35b3480156101c457600080fd5b506101df60048036038101906101da91906131aa565b61067d565b6040516101ec919061377f565b60405180910390f35b61020f600480360381019061020a9190613063565b610702565b60405161021c9190613c3b565b60405180910390f35b34801561023157600080fd5b5061024c600480360381019061024791906130b7565b6108a1565b005b34801561025a57600080fd5b5061027560048036038101906102709190612f5d565b6109b9565b005b34801561028357600080fd5b5061029e600480360381019061029991906130f3565b610a19565b6040516102ab9190613801565b60405180910390f35b3480156102c057600080fd5b506102db60048036038101906102d6919061311c565b610a39565b005b3480156102e957600080fd5b5061030460048036038101906102ff919061311c565b610a62565b005b34801561031257600080fd5b5061031b610ae5565b005b34801561032957600080fd5b50610344600480360381019061033f9190612f5d565b610c27565b005b34801561035257600080fd5b5061035b610c47565b6040516103689190613c3b565b60405180910390f35b34801561037d57600080fd5b50610398600480360381019061039391906131aa565b610c54565b6040516103a5919061377f565b60405180910390f35b3480156103ba57600080fd5b506103d560048036038101906103d09190612ef8565b610d06565b6040516103e29190613c3b565b60405180910390f35b3480156103f757600080fd5b50610412600480360381019061040d919061311c565b610dbe565b60405161041f91906137e6565b60405180910390f35b34801561043457600080fd5b5061043d610e29565b60405161044a91906138f9565b60405180910390f35b34801561045f57600080fd5b50610468610ebb565b6040516104759190613801565b60405180910390f35b34801561048a57600080fd5b506104a560048036038101906104a09190613027565b610ec2565b005b3480156104b357600080fd5b506104ce60048036038101906104c99190612fac565b610ed8565b005b3480156104dc57600080fd5b506104f760048036038101906104f291906131aa565b610f3a565b60405161050491906138f9565b60405180910390f35b34801561051957600080fd5b5061052261108c565b60405161052f9190613801565b60405180910390f35b34801561054457600080fd5b5061055f600480360381019061055a919061311c565b6110b0565b005b34801561056d57600080fd5b506105766110d9565b6040516105839190613c3b565b60405180910390f35b34801561059857600080fd5b506105b360048036038101906105ae9190612f21565b611120565b6040516105c091906137e6565b60405180910390f35b60006105d4826111b4565b806105e457506105e382611296565b5b9050919050565b6060600080546105fa90613fb4565b80601f016020809104026020016040519081016040528092919081815260200182805461062690613fb4565b80156106735780601f1061064857610100808354040283529160200191610673565b820191906000526020600020905b81548152906001019060200180831161065657829003601f168201915b5050505050905090565b600061068882611310565b6106c7576040517f08c379a00000000000000000000000000000000000000000000000000000000081526004016106be90613b3b565b60405180910390fd5b6004600083815260200190815260200160002060009054906101000a900473ffffffffffffffffffffffffffffffffffffffff169050919050565b60008061070e8361137c565b905061073a7f9f2df0fed2c77648de5860a4cc508cd0818c85b8b8a1ab4ceeef8d981c8956a682610dbe565b610779576040517f08c379a000000000000000000000000000000000000000000000000000000000815260040161077090613bdb565b60405180910390fd5b82602001353410156107c0576040517f08c379a00000000000000000000000000000000000000000000000000000000081526004016107b790613adb565b60405180910390fd5b6107ce8184600001356113ee565b61082e83600001358480604001906107e69190613cad565b8080601f016020809104026020016040519081016040528093929190818152602001838380828437600081840152601f19601f820116905080830192505050505050506115bc565b61083d81858560000135611630565b34600860008373ffffffffffffffffffffffffffffffffffffffff1673ffffffffffffffffffffffffffffffffffffffff168152602001908152602001600020600082825461088c9190613da8565b92505081905550826000013591505092915050565b60006108ac82610c54565b90508073ffffffffffffffffffffffffffffffffffffffff168373ffffffffffffffffffffffffffffffffffffffff16141561091d576040517f08c379a000000000000000000000000000000000000000000000000000000000815260040161091490613bbb565b60405180910390fd5b8073ffffffffffffffffffffffffffffffffffffffff1661093c61188c565b73ffffffffffffffffffffffffffffffffffffffff16148061096b575061096a8161096561188c565b611120565b5b6109aa576040517f08c379a00000000000000000000000000000000000000000000000000000000081526004016109a190613a3b565b60405180910390fd5b6109b48383611894565b505050565b6109ca6109c461188c565b8261194d565b610a09576040517f08c379a0000000000000000000000000000000000000000000000000000000008152600401610a0090613bfb565b60405180910390fd5b610a14838383611630565b505050565b600060076000838152602001908152602001600020600101549050919050565b610a4282610a19565b610a5381610a4e61188c565b611a2b565b610a5d8383611ac8565b505050565b610a6a61188c565b73ffffffffffffffffffffffffffffffffffffffff168173ffffffffffffffffffffffffffffffffffffffff1614610ad7576040517f08c379a0000000000000000000000000000000000000000000000000000000008152600401610ace90613c1b565b60405180910390fd5b610ae18282611ba9565b5050565b610b0f7f9f2df0fed2c77648de5860a4cc508cd0818c85b8b8a1ab4ceeef8d981c8956a633610dbe565b610b4e576040517f08c379a0000000000000000000000000000000000000000000000000000000008152600401610b4590613b9b565b60405180910390fd5b60003390506000600860008373ffffffffffffffffffffffffffffffffffffffff1673ffffffffffffffffffffffffffffffffffffffff1681526020019081526020016000205490506000600860008473ffffffffffffffffffffffffffffffffffffffff1673ffffffffffffffffffffffffffffffffffffffff168152602001908152602001600020819055508173ffffffffffffffffffffffffffffffffffffffff166108fc829081150290604051600060405180830381858888f19350505050158015610c22573d6000803e3d6000fd5b505050565b610c4283838360405180602001604052806000815250610ed8565b505050565b6000804690508091505090565b6000806002600084815260200190815260200160002060009054906101000a900473ffffffffffffffffffffffffffffffffffffffff169050600073ffffffffffffffffffffffffffffffffffffffff168173ffffffffffffffffffffffffffffffffffffffff161415610cfd576040517f08c379a0000000000000000000000000000000000000000000000000000000008152600401610cf490613a7b565b60405180910390fd5b80915050919050565b60008073ffffffffffffffffffffffffffffffffffffffff168273ffffffffffffffffffffffffffffffffffffffff161415610d77576040517f08c379a0000000000000000000000000000000000000000000000000000000008152600401610d6e90613a5b565b60405180910390fd5b600360008373ffffffffffffffffffffffffffffffffffffffff1673ffffffffffffffffffffffffffffffffffffffff168152602001908152602001600020549050919050565b60006007600084815260200190815260200160002060000160008373ffffffffffffffffffffffffffffffffffffffff1673ffffffffffffffffffffffffffffffffffffffff16815260200190815260200160002060009054906101000a900460ff16905092915050565b606060018054610e3890613fb4565b80601f0160208091040260200160405190810160405280929190818152602001828054610e6490613fb4565b8015610eb15780601f10610e8657610100808354040283529160200191610eb1565b820191906000526020600020905b815481529060010190602001808311610e9457829003601f168201915b5050505050905090565b6000801b81565b610ed4610ecd61188c565b8383611c8b565b5050565b610ee9610ee361188c565b8361194d565b610f28576040517f08c379a0000000000000000000000000000000000000000000000000000000008152600401610f1f90613bfb565b60405180910390fd5b610f3484848484611df8565b50505050565b6060610f4582611310565b610f84576040517f08c379a0000000000000000000000000000000000000000000000000000000008152600401610f7b90613b1b565b60405180910390fd5b6000600660008481526020019081526020016000208054610fa490613fb4565b80601f0160208091040260200160405190810160405280929190818152602001828054610fd090613fb4565b801561101d5780601f10610ff25761010080835404028352916020019161101d565b820191906000526020600020905b81548152906001019060200180831161100057829003601f168201915b50505050509050600061102e611e54565b9050600081511415611044578192505050611087565b6000825111156110795780826040516020016110619291906136ea565b60405160208183030381529060405292505050611087565b61108284611e6b565b925050505b919050565b7f9f2df0fed2c77648de5860a4cc508cd0818c85b8b8a1ab4ceeef8d981c8956a681565b6110b982610a19565b6110ca816110c561188c565b611a2b565b6110d48383611ba9565b505050565b6000600860003373ffffffffffffffffffffffffffffffffffffffff1673ffffffffffffffffffffffffffffffffffffffff16815260200190815260200160002054905090565b6000600560008473ffffffffffffffffffffffffffffffffffffffff1673ffffffffffffffffffffffffffffffffffffffff16815260200190815260200160002060008373ffffffffffffffffffffffffffffffffffffffff1673ffffffffffffffffffffffffffffffffffffffff16815260200190815260200160002060009054906101000a900460ff16905092915050565b60007f80ac58cd000000000000000000000000000000000000000000000000000000007bffffffffffffffffffffffffffffffffffffffffffffffffffffffff1916827bffffffffffffffffffffffffffffffffffffffffffffffffffffffff1916148061127f57507f5b5e139f000000000000000000000000000000000000000000000000000000007bffffffffffffffffffffffffffffffffffffffffffffffffffffffff1916827bffffffffffffffffffffffffffffffffffffffffffffffffffffffff1916145b8061128f575061128e82611f12565b5b9050919050565b60007f7965db0b000000000000000000000000000000000000000000000000000000007bffffffffffffffffffffffffffffffffffffffffffffffffffffffff1916827bffffffffffffffffffffffffffffffffffffffffffffffffffffffff191614806113095750611308826111b4565b5b9050919050565b60008073ffffffffffffffffffffffffffffffffffffffff166002600084815260200190815260200160002060009054906101000a900473ffffffffffffffffffffffffffffffffffffffff1673ffffffffffffffffffffffffffffffffffffffff1614159050919050565b60008061138883611f7c565b90506113e68184806060019061139e9190613c56565b8080601f016020809104026020016040519081016040528093929190818152602001838380828437600081840152601f19601f82011690508083019250505050505050612007565b915050919050565b600073ffffffffffffffffffffffffffffffffffffffff168273ffffffffffffffffffffffffffffffffffffffff16141561145e576040517f08c379a000000000000000000000000000000000000000000000000000000000815260040161145590613afb565b60405180910390fd5b61146781611310565b156114a7576040517f08c379a000000000000000000000000000000000000000000000000000000000815260040161149e9061399b565b60405180910390fd5b6114b36000838361202e565b6001600360008473ffffffffffffffffffffffffffffffffffffffff1673ffffffffffffffffffffffffffffffffffffffff16815260200190815260200160002060008282546115039190613da8565b92505081905550816002600083815260200190815260200160002060006101000a81548173ffffffffffffffffffffffffffffffffffffffff021916908373ffffffffffffffffffffffffffffffffffffffff160217905550808273ffffffffffffffffffffffffffffffffffffffff16600073ffffffffffffffffffffffffffffffffffffffff167fddf252ad1be2c89b69c2b068fc378daa952ba7f163c4a11628f55a4df523b3ef60405160405180910390a45050565b6115c582611310565b611604576040517f08c379a00000000000000000000000000000000000000000000000000000000081526004016115fb90613a9b565b60405180910390fd5b8060066000848152602001908152602001600020908051906020019061162b929190612d54565b505050565b8273ffffffffffffffffffffffffffffffffffffffff1661165082610c54565b73ffffffffffffffffffffffffffffffffffffffff16146116a6576040517f08c379a000000000000000000000000000000000000000000000000000000000815260040161169d90613b5b565b60405180910390fd5b600073ffffffffffffffffffffffffffffffffffffffff168273ffffffffffffffffffffffffffffffffffffffff161415611716576040517f08c379a000000000000000000000000000000000000000000000000000000000815260040161170d906139bb565b60405180910390fd5b61172183838361202e565b61172c600082611894565b6001600360008573ffffffffffffffffffffffffffffffffffffffff1673ffffffffffffffffffffffffffffffffffffffff168152602001908152602001600020600082825461177c9190613e89565b925050819055506001600360008473ffffffffffffffffffffffffffffffffffffffff1673ffffffffffffffffffffffffffffffffffffffff16815260200190815260200160002060008282546117d39190613da8565b92505081905550816002600083815260200190815260200160002060006101000a81548173ffffffffffffffffffffffffffffffffffffffff021916908373ffffffffffffffffffffffffffffffffffffffff160217905550808273ffffffffffffffffffffffffffffffffffffffff168473ffffffffffffffffffffffffffffffffffffffff167fddf252ad1be2c89b69c2b068fc378daa952ba7f163c4a11628f55a4df523b3ef60405160405180910390a4505050565b600033905090565b816004600083815260200190815260200160002060006101000a81548173ffffffffffffffffffffffffffffffffffffffff021916908373ffffffffffffffffffffffffffffffffffffffff160217905550808273ffffffffffffffffffffffffffffffffffffffff1661190783610c54565b73ffffffffffffffffffffffffffffffffffffffff167f8c5be1e5ebec7d5bd14f71427d1e84f3dd0314c0f7b2291e5b200ac8c7c3b92560405160405180910390a45050565b600061195882611310565b611997576040517f08c379a000000000000000000000000000000000000000000000000000000000815260040161198e90613a1b565b60405180910390fd5b60006119a283610c54565b90508073ffffffffffffffffffffffffffffffffffffffff168473ffffffffffffffffffffffffffffffffffffffff161480611a1157508373ffffffffffffffffffffffffffffffffffffffff166119f98461067d565b73ffffffffffffffffffffffffffffffffffffffff16145b80611a225750611a218185611120565b5b91505092915050565b611a358282610dbe565b611ac457611a5a8173ffffffffffffffffffffffffffffffffffffffff166014612033565b611a688360001c6020612033565b604051602001611a79929190613745565b6040516020818303038152906040526040517f08c379a0000000000000000000000000000000000000000000000000000000008152600401611abb91906138f9565b60405180910390fd5b5050565b611ad28282610dbe565b611ba55760016007600084815260200190815260200160002060000160008373ffffffffffffffffffffffffffffffffffffffff1673ffffffffffffffffffffffffffffffffffffffff16815260200190815260200160002060006101000a81548160ff021916908315150217905550611b4a61188c565b73ffffffffffffffffffffffffffffffffffffffff168173ffffffffffffffffffffffffffffffffffffffff16837f2f8788117e7eff1d82e926ec794901d17c78024a50270940304540a733656f0d60405160405180910390a45b5050565b611bb38282610dbe565b15611c875760006007600084815260200190815260200160002060000160008373ffffffffffffffffffffffffffffffffffffffff1673ffffffffffffffffffffffffffffffffffffffff16815260200190815260200160002060006101000a81548160ff021916908315150217905550611c2c61188c565b73ffffffffffffffffffffffffffffffffffffffff168173ffffffffffffffffffffffffffffffffffffffff16837ff6391f5c32d9c69d2a47ea670b442974b53935d1edc7fd64eb21e047a839171b60405160405180910390a45b5050565b8173ffffffffffffffffffffffffffffffffffffffff168373ffffffffffffffffffffffffffffffffffffffff161415611cfa576040517f08c379a0000000000000000000000000000000000000000000000000000000008152600401611cf1906139db565b60405180910390fd5b80600560008573ffffffffffffffffffffffffffffffffffffffff1673ffffffffffffffffffffffffffffffffffffffff16815260200190815260200160002060008473ffffffffffffffffffffffffffffffffffffffff1673ffffffffffffffffffffffffffffffffffffffff16815260200190815260200160002060006101000a81548160ff0219169083151502179055508173ffffffffffffffffffffffffffffffffffffffff168373ffffffffffffffffffffffffffffffffffffffff167f17307eab39ab6107e8899845ad3d59bd9653f200f220920489ca2b5937696c3183604051611deb91906137e6565b60405180910390a3505050565b611e03848484611630565b611e0f8484848461232d565b611e4e576040517f08c379a0000000000000000000000000000000000000000000000000000000008152600401611e459061397b565b60405180910390fd5b50505050565b606060405180602001604052806000815250905090565b6060611e7682611310565b611eb5576040517f08c379a0000000000000000000000000000000000000000000000000000000008152600401611eac90613b7b565b60405180910390fd5b6000611ebf611e54565b90506000815111611edf5760405180602001604052806000815250611f0a565b80611ee9846124c4565b604051602001611efa9291906136ea565b6040516020818303038152906040525b915050919050565b60007f01ffc9a7000000000000000000000000000000000000000000000000000000007bffffffffffffffffffffffffffffffffffffffffffffffffffffffff1916827bffffffffffffffffffffffffffffffffffffffffffffffffffffffff1916149050919050565b60006120007f6316f9ddd4d59a364f3b95c26bab9d392c3380ace0fff15e91ed76f0d8bcd15a83600001358460200135858060400190611fbc9190613cad565b604051611fca9291906136d1565b6040518091039020604051602001611fe5949392919061386f565b60405160208183030381529060405280519060200120612671565b9050919050565b6000806000612016858561268b565b915091506120238161270e565b819250505092915050565b505050565b6060600060028360026120469190613e2f565b6120509190613da8565b67ffffffffffffffff81111561208f577f4e487b7100000000000000000000000000000000000000000000000000000000600052604160045260246000fd5b6040519080825280601f01601f1916602001820160405280156120c15781602001600182028036833780820191505090505b5090507f30000000000000000000000000000000000000000000000000000000000000008160008151811061211f577f4e487b7100000000000000000000000000000000000000000000000000000000600052603260045260246000fd5b60200101907effffffffffffffffffffffffffffffffffffffffffffffffffffffffffffff1916908160001a9053507f7800000000000000000000000000000000000000000000000000000000000000816001815181106121a9577f4e487b7100000000000000000000000000000000000000000000000000000000600052603260045260246000fd5b60200101907effffffffffffffffffffffffffffffffffffffffffffffffffffffffffffff1916908160001a905350600060018460026121e99190613e2f565b6121f39190613da8565b90505b60018111156122df577f3031323334353637383961626364656600000000000000000000000000000000600f86166010811061225b577f4e487b7100000000000000000000000000000000000000000000000000000000600052603260045260246000fd5b1a60f81b828281518110612298577f4e487b7100000000000000000000000000000000000000000000000000000000600052603260045260246000fd5b60200101907effffffffffffffffffffffffffffffffffffffffffffffffffffffffffffff1916908160001a905350600485901c9450806122d890613f8a565b90506121f6565b5060008414612323576040517f08c379a000000000000000000000000000000000000000000000000000000000815260040161231a9061393b565b60405180910390fd5b8091505092915050565b600061234e8473ffffffffffffffffffffffffffffffffffffffff16612a5f565b156124b7578373ffffffffffffffffffffffffffffffffffffffff1663150b7a0261237761188c565b8786866040518563ffffffff1660e01b8152600401612399949392919061379a565b602060405180830381600087803b1580156123b357600080fd5b505af19250505080156123e457506040513d601f19601f820116820180604052508101906123e19190613181565b60015b612467573d8060008114612414576040519150601f19603f3d011682016040523d82523d6000602084013e612419565b606091505b5060008151141561245f576040517f08c379a00000000000000000000000000000000000000000000000000000000081526004016124569061397b565b60405180910390fd5b805181602001fd5b63150b7a0260e01b7bffffffffffffffffffffffffffffffffffffffffffffffffffffffff1916817bffffffffffffffffffffffffffffffffffffffffffffffffffffffff1916149150506124bc565b600190505b949350505050565b6060600082141561250c576040518060400160405280600181526020017f3000000000000000000000000000000000000000000000000000000000000000815250905061266c565b600082905060005b6000821461253e57808061252790614017565b915050600a826125379190613dfe565b9150612514565b60008167ffffffffffffffff811115612580577f4e487b7100000000000000000000000000000000000000000000000000000000600052604160045260246000fd5b6040519080825280601f01601f1916602001820160405280156125b25781602001600182028036833780820191505090505b5090505b60008514612665576001826125cb9190613e89565b9150600a856125da919061406a565b60306125e69190613da8565b60f81b818381518110612622577f4e487b7100000000000000000000000000000000000000000000000000000000600052603260045260246000fd5b60200101907effffffffffffffffffffffffffffffffffffffffffffffffffffffffffffff1916908160001a905350600a8561265e9190613dfe565b94506125b6565b8093505050505b919050565b600061268461267e612a72565b83612b8c565b9050919050565b6000806041835114156126cd5760008060006020860151925060408601519150606086015160001a90506126c187828585612bbf565b94509450505050612707565b6040835114156126fe5760008060208501519150604085015190506126f3868383612ccc565b935093505050612707565b60006002915091505b9250929050565b60006004811115612748577f4e487b7100000000000000000000000000000000000000000000000000000000600052602160045260246000fd5b816004811115612781577f4e487b7100000000000000000000000000000000000000000000000000000000600052602160045260246000fd5b141561278c57612a5c565b600160048111156127c6577f4e487b7100000000000000000000000000000000000000000000000000000000600052602160045260246000fd5b8160048111156127ff577f4e487b7100000000000000000000000000000000000000000000000000000000600052602160045260246000fd5b1415612840576040517f08c379a00000000000000000000000000000000000000000000000000000000081526004016128379061391b565b60405180910390fd5b6002600481111561287a577f4e487b7100000000000000000000000000000000000000000000000000000000600052602160045260246000fd5b8160048111156128b3577f4e487b7100000000000000000000000000000000000000000000000000000000600052602160045260246000fd5b14156128f4576040517f08c379a00000000000000000000000000000000000000000000000000000000081526004016128eb9061395b565b60405180910390fd5b6003600481111561292e577f4e487b7100000000000000000000000000000000000000000000000000000000600052602160045260246000fd5b816004811115612967577f4e487b7100000000000000000000000000000000000000000000000000000000600052602160045260246000fd5b14156129a8576040517f08c379a000000000000000000000000000000000000000000000000000000000815260040161299f906139fb565b60405180910390fd5b6004808111156129e1577f4e487b7100000000000000000000000000000000000000000000000000000000600052602160045260246000fd5b816004811115612a1a577f4e487b7100000000000000000000000000000000000000000000000000000000600052602160045260246000fd5b1415612a5b576040517f08c379a0000000000000000000000000000000000000000000000000000000008152600401612a5290613abb565b60405180910390fd5b5b50565b600080823b905060008111915050919050565b60007f000000000000000000000000000000000000000000000000000000000000000073ffffffffffffffffffffffffffffffffffffffff163073ffffffffffffffffffffffffffffffffffffffff16148015612aee57507f000000000000000000000000000000000000000000000000000000000000000046145b15612b1b577f00000000000000000000000000000000000000000000000000000000000000009050612b89565b612b867f00000000000000000000000000000000000000000000000000000000000000007f00000000000000000000000000000000000000000000000000000000000000007f0000000000000000000000000000000000000000000000000000000000000000612d1a565b90505b90565b60008282604051602001612ba192919061370e565b60405160208183030381529060405280519060200120905092915050565b6000807f7fffffffffffffffffffffffffffffff5d576e7357a4501ddfe92f46681b20a08360001c1115612bfa576000600391509150612cc3565b601b8560ff1614158015612c125750601c8560ff1614155b15612c24576000600491509150612cc3565b600060018787878760405160008152602001604052604051612c4994939291906138b4565b6020604051602081039080840390855afa158015612c6b573d6000803e3d6000fd5b505050602060405103519050600073ffffffffffffffffffffffffffffffffffffffff168173ffffffffffffffffffffffffffffffffffffffff161415612cba57600060019250925050612cc3565b80600092509250505b94509492505050565b6000806000807f7fffffffffffffffffffffffffffffffffffffffffffffffffffffffffffffff85169150601b8560ff1c019050612d0c87828885612bbf565b935093505050935093915050565b60008383834630604051602001612d3595949392919061381c565b6040516020818303038152906040528051906020012090509392505050565b828054612d6090613fb4565b90600052602060002090601f016020900481019282612d825760008555612dc9565b82601f10612d9b57805160ff1916838001178555612dc9565b82800160010185558215612dc9579182015b82811115612dc8578251825591602001919060010190612dad565b5b509050612dd69190612dda565b5090565b5b80821115612df3576000816000905550600101612ddb565b5090565b6000612e0a612e0584613d29565b613d04565b905082815260208101848484011115612e2257600080fd5b612e2d848285613f48565b509392505050565b600081359050612e4481614890565b92915050565b600081359050612e59816148a7565b92915050565b600081359050612e6e816148be565b92915050565b600081359050612e83816148d5565b92915050565b600081519050612e98816148d5565b92915050565b600082601f830112612eaf57600080fd5b8135612ebf848260208601612df7565b91505092915050565b600060808284031215612eda57600080fd5b81905092915050565b600081359050612ef2816148ec565b92915050565b600060208284031215612f0a57600080fd5b6000612f1884828501612e35565b91505092915050565b60008060408385031215612f3457600080fd5b6000612f4285828601612e35565b9250506020612f5385828601612e35565b9150509250929050565b600080600060608486031215612f7257600080fd5b6000612f8086828701612e35565b9350506020612f9186828701612e35565b9250506040612fa286828701612ee3565b9150509250925092565b60008060008060808587031215612fc257600080fd5b6000612fd087828801612e35565b9450506020612fe187828801612e35565b9350506040612ff287828801612ee3565b925050606085013567ffffffffffffffff81111561300f57600080fd5b61301b87828801612e9e565b91505092959194509250565b6000806040838503121561303a57600080fd5b600061304885828601612e35565b925050602061305985828601612e4a565b9150509250929050565b6000806040838503121561307657600080fd5b600061308485828601612e35565b925050602083013567ffffffffffffffff8111156130a157600080fd5b6130ad85828601612ec8565b9150509250929050565b600080604083850312156130ca57600080fd5b60006130d885828601612e35565b92505060206130e985828601612ee3565b9150509250929050565b60006020828403121561310557600080fd5b600061311384828501612e5f565b91505092915050565b6000806040838503121561312f57600080fd5b600061313d85828601612e5f565b925050602061314e85828601612e35565b9150509250929050565b60006020828403121561316a57600080fd5b600061317884828501612e74565b91505092915050565b60006020828403121561319357600080fd5b60006131a184828501612e89565b91505092915050565b6000602082840312156131bc57600080fd5b60006131ca84828501612ee3565b91505092915050565b6131dc81613ebd565b82525050565b6131eb81613ecf565b82525050565b6131fa81613edb565b82525050565b61321161320c82613edb565b614060565b82525050565b60006132238385613d81565b9350613230838584613f48565b82840190509392505050565b600061324782613d5a565b6132518185613d70565b9350613261818560208601613f57565b61326a81614157565b840191505092915050565b600061328082613d65565b61328a8185613d8c565b935061329a818560208601613f57565b6132a381614157565b840191505092915050565b60006132b982613d65565b6132c38185613d9d565b93506132d3818560208601613f57565b80840191505092915050565b60006132ec601883613d8c565b91506132f782614168565b602082019050919050565b600061330f602083613d8c565b915061331a82614191565b602082019050919050565b6000613332601f83613d8c565b915061333d826141ba565b602082019050919050565b6000613355603283613d8c565b9150613360826141e3565b604082019050919050565b6000613378601c83613d8c565b915061338382614232565b602082019050919050565b600061339b600283613d9d565b91506133a68261425b565b600282019050919050565b60006133be602483613d8c565b91506133c982614284565b604082019050919050565b60006133e1601983613d8c565b91506133ec826142d3565b602082019050919050565b6000613404602283613d8c565b915061340f826142fc565b604082019050919050565b6000613427602c83613d8c565b91506134328261434b565b604082019050919050565b600061344a603883613d8c565b91506134558261439a565b604082019050919050565b600061346d602a83613d8c565b9150613478826143e9565b604082019050919050565b6000613490602983613d8c565b915061349b82614438565b604082019050919050565b60006134b3602e83613d8c565b91506134be82614487565b604082019050919050565b60006134d6602283613d8c565b91506134e1826144d6565b604082019050919050565b60006134f9601c83613d8c565b915061350482614525565b602082019050919050565b600061351c602083613d8c565b91506135278261454e565b602082019050919050565b600061353f603183613d8c565b915061354a82614577565b604082019050919050565b6000613562602c83613d8c565b915061356d826145c6565b604082019050919050565b6000613585602983613d8c565b915061359082614615565b604082019050919050565b60006135a8602f83613d8c565b91506135b382614664565b604082019050919050565b60006135cb602483613d8c565b91506135d6826146b3565b604082019050919050565b60006135ee602183613d8c565b91506135f982614702565b604082019050919050565b6000613611602183613d8c565b915061361c82614751565b604082019050919050565b6000613634603183613d8c565b915061363f826147a0565b604082019050919050565b6000613657601783613d9d565b9150613662826147ef565b601782019050919050565b600061367a601183613d9d565b915061368582614818565b601182019050919050565b600061369d602f83613d8c565b91506136a882614841565b604082019050919050565b6136bc81613f31565b82525050565b6136cb81613f3b565b82525050565b60006136de828486613217565b91508190509392505050565b60006136f682856132ae565b915061370282846132ae565b91508190509392505050565b60006137198261338e565b91506137258285613200565b6020820191506137358284613200565b6020820191508190509392505050565b60006137508261364a565b915061375c82856132ae565b91506137678261366d565b915061377382846132ae565b91508190509392505050565b600060208201905061379460008301846131d3565b92915050565b60006080820190506137af60008301876131d3565b6137bc60208301866131d3565b6137c960408301856136b3565b81810360608301526137db818461323c565b905095945050505050565b60006020820190506137fb60008301846131e2565b92915050565b600060208201905061381660008301846131f1565b92915050565b600060a08201905061383160008301886131f1565b61383e60208301876131f1565b61384b60408301866131f1565b61385860608301856136b3565b61386560808301846131d3565b9695505050505050565b600060808201905061388460008301876131f1565b61389160208301866136b3565b61389e60408301856136b3565b6138ab60608301846131f1565b95945050505050565b60006080820190506138c960008301876131f1565b6138d660208301866136c2565b6138e360408301856131f1565b6138f060608301846131f1565b95945050505050565b600060208201905081810360008301526139138184613275565b905092915050565b60006020820190508181036000830152613934816132df565b9050919050565b6000602082019050818103600083015261395481613302565b9050919050565b6000602082019050818103600083015261397481613325565b9050919050565b6000602082019050818103600083015261399481613348565b9050919050565b600060208201905081810360008301526139b48161336b565b9050919050565b600060208201905081810360008301526139d4816133b1565b9050919050565b600060208201905081810360008301526139f4816133d4565b9050919050565b60006020820190508181036000830152613a14816133f7565b9050919050565b60006020820190508181036000830152613a348161341a565b9050919050565b60006020820190508181036000830152613a548161343d565b9050919050565b60006020820190508181036000830152613a7481613460565b9050919050565b60006020820190508181036000830152613a9481613483565b9050919050565b60006020820190508181036000830152613ab4816134a6565b9050919050565b60006020820190508181036000830152613ad4816134c9565b9050919050565b60006020820190508181036000830152613af4816134ec565b9050919050565b60006020820190508181036000830152613b148161350f565b9050919050565b60006020820190508181036000830152613b3481613532565b9050919050565b60006020820190508181036000830152613b5481613555565b9050919050565b60006020820190508181036000830152613b7481613578565b9050919050565b60006020820190508181036000830152613b948161359b565b9050919050565b60006020820190508181036000830152613bb4816135be565b9050919050565b60006020820190508181036000830152613bd4816135e1565b9050919050565b60006020820190508181036000830152613bf481613604565b9050919050565b60006020820190508181036000830152613c1481613627565b9050919050565b60006020820190508181036000830152613c3481613690565b9050919050565b6000602082019050613c5060008301846136b3565b92915050565b60008083356001602003843603038112613c6f57600080fd5b80840192508235915067ffffffffffffffff821115613c8d57600080fd5b602083019250600182023603831315613ca557600080fd5b509250929050565b60008083356001602003843603038112613cc657600080fd5b80840192508235915067ffffffffffffffff821115613ce457600080fd5b602083019250600182023603831315613cfc57600080fd5b509250929050565b6000613d0e613d1f565b9050613d1a8282613fe6565b919050565b6000604051905090565b600067ffffffffffffffff821115613d4457613d43614128565b5b613d4d82614157565b9050602081019050919050565b600081519050919050565b600081519050919050565b600082825260208201905092915050565b600081905092915050565b600082825260208201905092915050565b600081905092915050565b6000613db382613f31565b9150613dbe83613f31565b9250827fffffffffffffffffffffffffffffffffffffffffffffffffffffffffffffffff03821115613df357613df261409b565b5b828201905092915050565b6000613e0982613f31565b9150613e1483613f31565b925082613e2457613e236140ca565b5b828204905092915050565b6000613e3a82613f31565b9150613e4583613f31565b9250817fffffffffffffffffffffffffffffffffffffffffffffffffffffffffffffffff0483118215151615613e7e57613e7d61409b565b5b828202905092915050565b6000613e9482613f31565b9150613e9f83613f31565b925082821015613eb257613eb161409b565b5b828203905092915050565b6000613ec882613f11565b9050919050565b60008115159050919050565b6000819050919050565b60007fffffffff0000000000000000000000000000000000000000000000000000000082169050919050565b600073ffffffffffffffffffffffffffffffffffffffff82169050919050565b6000819050919050565b600060ff82169050919050565b82818337600083830152505050565b60005b83811015613f75578082015181840152602081019050613f5a565b83811115613f84576000848401525b50505050565b6000613f9582613f31565b91506000821415613fa957613fa861409b565b5b600182039050919050565b60006002820490506001821680613fcc57607f821691505b60208210811415613fe057613fdf6140f9565b5b50919050565b613fef82614157565b810181811067ffffffffffffffff8211171561400e5761400d614128565b5b80604052505050565b600061402282613f31565b91507fffffffffffffffffffffffffffffffffffffffffffffffffffffffffffffffff8214156140555761405461409b565b5b600182019050919050565b6000819050919050565b600061407582613f31565b915061408083613f31565b9250826140905761408f6140ca565b5b828206905092915050565b7f4e487b7100000000000000000000000000000000000000000000000000000000600052601160045260246000fd5b7f4e487b7100000000000000000000000000000000000000000000000000000000600052601260045260246000fd5b7f4e487b7100000000000000000000000000000000000000000000000000000000600052602260045260246000fd5b7f4e487b7100000000000000000000000000000000000000000000000000000000600052604160045260246000fd5b6000601f19601f8301169050919050565b7f45434453413a20696e76616c6964207369676e61747572650000000000000000600082015250565b7f537472696e67733a20686578206c656e67746820696e73756666696369656e74600082015250565b7f45434453413a20696e76616c6964207369676e6174757265206c656e67746800600082015250565b7f4552433732313a207472616e7366657220746f206e6f6e20455243373231526560008201527f63656976657220696d706c656d656e7465720000000000000000000000000000602082015250565b7f4552433732313a20746f6b656e20616c7265616479206d696e74656400000000600082015250565b7f1901000000000000000000000000000000000000000000000000000000000000600082015250565b7f4552433732313a207472616e7366657220746f20746865207a65726f2061646460008201527f7265737300000000000000000000000000000000000000000000000000000000602082015250565b7f4552433732313a20617070726f766520746f2063616c6c657200000000000000600082015250565b7f45434453413a20696e76616c6964207369676e6174757265202773272076616c60008201527f7565000000000000000000000000000000000000000000000000000000000000602082015250565b7f4552433732313a206f70657261746f7220717565727920666f72206e6f6e657860008201527f697374656e7420746f6b656e0000000000000000000000000000000000000000602082015250565b7f4552433732313a20617070726f76652063616c6c6572206973206e6f74206f7760008201527f6e6572206e6f7220617070726f76656420666f7220616c6c0000000000000000602082015250565b7f4552433732313a2062616c616e636520717565727920666f7220746865207a6560008201527f726f206164647265737300000000000000000000000000000000000000000000602082015250565b7f4552433732313a206f776e657220717565727920666f72206e6f6e657869737460008201527f656e7420746f6b656e0000000000000000000000000000000000000000000000602082015250565b7f45524337323155524953746f726167653a2055524920736574206f66206e6f6e60008201527f6578697374656e7420746f6b656e000000000000000000000000000000000000602082015250565b7f45434453413a20696e76616c6964207369676e6174757265202776272076616c60008201527f7565000000000000000000000000000000000000000000000000000000000000602082015250565b7f496e73756666696369656e742066756e647320746f2072656465656d00000000600082015250565b7f4552433732313a206d696e7420746f20746865207a65726f2061646472657373600082015250565b7f45524337323155524953746f726167653a2055524920717565727920666f722060008201527f6e6f6e6578697374656e7420746f6b656e000000000000000000000000000000602082015250565b7f4552433732313a20617070726f76656420717565727920666f72206e6f6e657860008201527f697374656e7420746f6b656e0000000000000000000000000000000000000000602082015250565b7f4552433732313a207472616e73666572206f6620746f6b656e2074686174206960008201527f73206e6f74206f776e0000000000000000000000000000000000000000000000602082015250565b7f4552433732314d657461646174613a2055524920717565727920666f72206e6f60008201527f6e6578697374656e7420746f6b656e0000000000000000000000000000000000602082015250565b7f4f6e6c7920617574686f72697a6564206d696e746572732063616e207769746860008201527f6472617700000000000000000000000000000000000000000000000000000000602082015250565b7f4552433732313a20617070726f76616c20746f2063757272656e74206f776e6560008201527f7200000000000000000000000000000000000000000000000000000000000000602082015250565b7f5369676e617475726520696e76616c6964206f7220756e617574686f72697a6560008201527f6400000000000000000000000000000000000000000000000000000000000000602082015250565b7f4552433732313a207472616e736665722063616c6c6572206973206e6f74206f60008201527f776e6572206e6f7220617070726f766564000000000000000000000000000000602082015250565b7f416363657373436f6e74726f6c3a206163636f756e7420000000000000000000600082015250565b7f206973206d697373696e6720726f6c6520000000000000000000000000000000600082015250565b7f416363657373436f6e74726f6c3a2063616e206f6e6c792072656e6f756e636560008201527f20726f6c657320666f722073656c660000000000000000000000000000000000602082015250565b61489981613ebd565b81146148a457600080fd5b50565b6148b081613ecf565b81146148bb57600080fd5b50565b6148c781613edb565b81146148d257600080fd5b50565b6148de81613ee5565b81146148e957600080fd5b50565b6148f581613f31565b811461490057600080fd5b5056fea2646970667358221220d2dcc54b9b5d04a6208a74acd5056584cf3ae402086ef88349f715743974878164736f6c63430008040033",
  "linkReferences": {},
  "deployedLinkReferences": {}
}